{
  "contractName": "buyGoods",
  "abi": [
    {
      "inputs": [],
      "payable": false,
      "stateMutability": "nonpayable",
      "type": "constructor"
    },
    {
      "anonymous": false,
      "inputs": [
        {
          "indexed": false,
          "name": "",
          "type": "uint256"
        },
        {
          "indexed": false,
          "name": "",
          "type": "string"
        },
        {
          "indexed": false,
          "name": "",
          "type": "uint256"
        },
        {
          "indexed": false,
          "name": "",
          "type": "string"
        },
        {
          "indexed": false,
          "name": "",
          "type": "string"
        },
        {
          "indexed": false,
          "name": "",
          "type": "bool"
        }
      ],
      "name": "TransactionCreated",
      "type": "event"
    },
    {
      "constant": false,
      "inputs": [
        {
          "name": "_eventName",
          "type": "string"
        },
        {
          "name": "_donation",
          "type": "uint256"
        },
        {
          "name": "_donator",
          "type": "string"
        },
        {
          "name": "_supplier",
          "type": "string"
        }
      ],
      "name": "createTransaction",
      "outputs": [],
      "payable": false,
      "stateMutability": "nonpayable",
      "type": "function"
    },
    {
      "constant": true,
      "inputs": [
        {
          "name": "id",
          "type": "uint256"
        }
      ],
      "name": "getTransactionIds",
      "outputs": [
        {
          "name": "",
          "type": "uint256[]"
        },
        {
          "name": "",
          "type": "string"
        },
        {
          "name": "",
          "type": "uint256"
        },
        {
          "name": "",
          "type": "string"
        },
        {
          "name": "",
          "type": "string"
        },
        {
          "name": "",
          "type": "bool"
        }
      ],
      "payable": false,
      "stateMutability": "view",
      "type": "function"
    },
    {
      "constant": true,
      "inputs": [
        {
          "name": "id",
          "type": "uint256"
        }
      ],
      "name": "getTransaction",
      "outputs": [
        {
          "name": "",
          "type": "uint256"
        },
        {
          "name": "",
          "type": "string"
        },
        {
          "name": "",
          "type": "uint256"
        },
        {
          "name": "",
          "type": "string"
        },
        {
          "name": "",
          "type": "string"
        },
        {
          "name": "",
          "type": "bool"
        }
      ],
      "payable": false,
      "stateMutability": "view",
      "type": "function"
    }
  ],
  "bytecode": "0x608060405234801561001057600080fd5b5060008081905550610add806100276000396000f3fe608060405260043610610057576000357c0100000000000000000000000000000000000000000000000000000000900463ffffffff16806333ea3dc81461005c578063400d457d14610201578063a2e38b5414610401575b600080fd5b34801561006857600080fd5b506100956004803603602081101561007f57600080fd5b810190808035906020019092919050505061046d565b6040518087815260200180602001868152602001806020018060200185151515158152602001848103845289818151815260200191508051906020019080838360005b838110156100f35780820151818401526020810190506100d8565b50505050905090810190601f1680156101205780820380516001836020036101000a031916815260200191505b50848103835287818151815260200191508051906020019080838360005b8381101561015957808201518184015260208101905061013e565b50505050905090810190601f1680156101865780820380516001836020036101000a031916815260200191505b50848103825286818151815260200191508051906020019080838360005b838110156101bf5780820151818401526020810190506101a4565b50505050905090810190601f1680156101ec5780820380516001836020036101000a031916815260200191505b50995050505050505050505060405180910390f35b34801561020d57600080fd5b506103ff6004803603608081101561022457600080fd5b810190808035906020019064010000000081111561024157600080fd5b82018360208201111561025357600080fd5b8035906020019184600183028401116401000000008311171561027557600080fd5b91908080601f016020809104026020016040519081016040528093929190818152602001838380828437600081840152601f19601f82011690508083019250505050505050919291929080359060200190929190803590602001906401000000008111156102e257600080fd5b8201836020820111156102f457600080fd5b8035906020019184600183028401116401000000008311171561031657600080fd5b91908080601f016020809104026020016040519081016040528093929190818152602001838380828437600081840152601f19601f8201169050808301925050505050505091929192908035906020019064010000000081111561037957600080fd5b82018360208201111561038b57600080fd5b803590602001918460018302840111640100000000831117156103ad57600080fd5b91908080601f016020809104026020016040519081016040528093929190818152602001838380828437600081840152601f19601f820116905080830192505050505050509192919290505050610705565b005b34801561040d57600080fd5b506104166109b4565b6040518080602001828103825283818151815260200191508051906020019060200280838360005b8381101561045957808201518184015260208101905061043e565b505050509050019250505060405180910390f35b60006060600060608060008660006002600083815260200190815260200160002060000154141561049d57600080fd5b87600260008a8152602001908152602001600020600101600260008b815260200190815260200160002060020154600260008c8152602001908152602001600020600301600260008d8152602001908152602001600020600401600260008e815260200190815260200160002060050160009054906101000a900460ff16848054600181600116156101000203166002900480601f0160208091040260200160405190810160405280929190818152602001828054600181600116156101000203166002900480156105b05780601f10610585576101008083540402835291602001916105b0565b820191906000526020600020905b81548152906001019060200180831161059357829003601f168201915b50505050509450828054600181600116156101000203166002900480601f01602080910402602001604051908101604052809291908181526020018280546001816001161561010002031660029004801561064c5780601f106106215761010080835404028352916020019161064c565b820191906000526020600020905b81548152906001019060200180831161062f57829003601f168201915b50505050509250818054600181600116156101000203166002900480601f0160208091040260200160405190810160405280929190818152602001828054600181600116156101000203166002900480156106e85780601f106106bd576101008083540402835291602001916106e8565b820191906000526020600020905b8154815290600101906020018083116106cb57829003601f168201915b505050505091509650965096509650965096505091939550919395565b600080815480929190600101919050555060c0604051908101604052806000548152602001858152602001848152602001838152602001828152602001600015158152506002600080548152602001908152602001600020600082015181600001556020820151816001019080519060200190610783929190610a0c565b506040820151816002015560608201518160030190805190602001906107aa929190610a0c565b5060808201518160040190805190602001906107c7929190610a0c565b5060a08201518160050160006101000a81548160ff021916908315150217905550905050600160005490806001815401808255809150509060018203906000526020600020016000909192909190915055507f84dd87425cef0a0f9f5d55271912a262f21c641c89f889772d28f96af6106dfe6000548585858560006040518087815260200180602001868152602001806020018060200185151515158152602001848103845289818151815260200191508051906020019080838360005b838110156108a1578082015181840152602081019050610886565b50505050905090810190601f1680156108ce5780820380516001836020036101000a031916815260200191505b50848103835287818151815260200191508051906020019080838360005b838110156109075780820151818401526020810190506108ec565b50505050905090810190601f1680156109345780820380516001836020036101000a031916815260200191505b50848103825286818151815260200191508051906020019080838360005b8381101561096d578082015181840152602081019050610952565b50505050905090810190601f16801561099a5780820380516001836020036101000a031916815260200191505b50995050505050505050505060405180910390a150505050565b60606001805480602002602001604051908101604052809291908181526020018280548015610a0257602002820191906000526020600020905b8154815260200190600101908083116109ee575b5050505050905090565b828054600181600116156101000203166002900490600052602060002090601f016020900481019282601f10610a4d57805160ff1916838001178555610a7b565b82800160010185558215610a7b579182015b82811115610a7a578251825591602001919060010190610a5f565b5b509050610a889190610a8c565b5090565b610aae91905b80821115610aaa576000816000905550600101610a92565b5090565b9056fea165627a7a723058207395af389e20c2cbf5e076842aaa2f16b97d93da109e2672510d0ece82afee7f0029",
  "source": "pragma solidity ^0.5.0;\n\n// code based on https://github.com/jklepatch/eattheblocks/blob/master/special-episode-1/step3/contracts/ToDo.sol \n\ncontract buyGoods {\n\tstruct Transaction {\n\t\tuint id;\n\t\tstring eventName;\t// date + location of the disaster \n\t\tuint donation;\t\t// use 2 decimals places (*10^2)\n\t\tstring donator;\n\t\tstring supplier;\t// public key\n\t\tbool done;\n\t}\n\t\n\tuint lastTransactionId;\n\tuint[] transactionIds;\n\tmapping(uint => Transaction) transactions; \n\t\n\tevent TransactionCreated(uint, string, uint, string, string, bool); \n\n\tconstructor() public {\n\t\tlastTransactionId = 0; \n\t}\n\n\tfunction createTransaction(string memory _eventName, uint _donation, string memory _donator, string memory _supplier) public {\n\t\tlastTransactionId++;\n\t\ttransactions[lastTransactionId] = Transaction(lastTransactionId, _eventName, _donation, _donator, _supplier, false); \n\t\ttransactionIds.push(lastTransactionId);\n\t\temit TransactionCreated(lastTransactionId, _eventName, _donation, _donator, _supplier, false); \n\t}\n\n\tfunction getTransactionIds() public view returns(uint[] memory) {\n\t\treturn transactionIds;\n\t}\n\n\t// read-only function, fetch task to display\n\tfunction getTransaction(uint id) transactionExists(id) public view\n\t\treturns(\n\t\t\tuint,\n\t\t\tstring memory,\n\t\t\tuint,\n\t\t\tstring memory,\n\t\t\tstring memory,\n\t\t\tbool\n\t\t) {\n\n\t\t\treturn(\n\t\t\t\tid,\n\t\t\t\ttransactions[id].eventName,\n\t\t\t\ttransactions[id].donation,\n\t\t\t\ttransactions[id].donator,\n\t\t\t\ttransactions[id].supplier,\n\t\t\t\ttransactions[id].done\n\t\t\t);\n\t\t}\n\n\tmodifier transactionExists(uint id) {\n\t\tif(transactions[id].id == 0) {\n\t\t\trevert();\n\t\t}\n\t\t_;\n\t}\n\n\t//function triggerEvent()\n}\n",
  "sourcePath": "/Users/Elisa-Chaerin-Han/hackathon_accenture/Accenture-Hackathon-2019/blockchain/contracts/BuyGoods.sol",
  "compiler": {
    "name": "solc",
    "version": "0.5.0+commit.1d4f565a.Emscripten.clang"
  },
  "schemaVersion": "3.0.8",
  "updatedAt": "2019-04-27T15:31:01.000Z",
  "devdoc": {
    "methods": {}
  },
  "userdoc": {
    "methods": {}
  }
}