{
  "contractName": "buyGoods",
  "abi": [
    {
      "inputs": [],
      "payable": false,
      "stateMutability": "view",
      "type": "function",
      "constant": true,
      "name": "total",
      "outputs": [
        {
          "name": "",
          "type": "uint256"
        }
      ],
      "signature": "0x2ddbd13a"
    },
    {
      "anonymous": false,
      "inputs": [
        {
          "indexed": false,
          "name": "",
          "type": "uint256"
        },
        {
          "indexed": false,
          "name": "",
          "type": "string"
        },
        {
          "indexed": false,
          "name": "",
          "type": "uint256"
        },
        {
          "indexed": false,
          "name": "",
          "type": "string"
        },
        {
          "indexed": false,
          "name": "",
          "type": "string"
        },
        {
          "indexed": false,
          "name": "",
          "type": "bool"
        }
      ],
      "name": "supplier",
      "type": "function",
      "constant": true,
      "outputs": [
        {
          "name": "",
          "type": "address"
        }
      ],
      "payable": false,
      "stateMutability": "view",
      "signature": "0x15b450dc"
    },
    {
      "constant": true,
      "inputs": [
        {
          "name": "_eventName",
          "type": "string"
        },
        {
          "name": "_donation",
          "type": "uint256"
        },
        {
          "name": "_donator",
          "type": "string"
        },
        {
          "name": "_supplier",
          "type": "string"
        }
      ],
      "name": "threshold",
      "outputs": [
        {
          "name": "",
          "type": "uint256"
        }
      ],
      "payable": false,
      "stateMutability": "view",
      "type": "function",
      "signature": "0xcc68ded9"
    },
    {
      "constant": true,
      "inputs": [
        {
          "name": "",
          "type": "uint256"
        }
      ],
      "name": "donators",
      "outputs": [
        {
          "name": "dAddr",
          "type": "address"
        },
        {
          "name": "value",
          "type": "uint256"
        },
        {
          "name": "",
          "type": "uint256"
        },
        {
          "name": "",
          "type": "string"
        },
        {
          "name": "",
          "type": "string"
        },
        {
          "name": "",
          "type": "bool"
        }
      ],
      "payable": false,
      "stateMutability": "view",
      "type": "function",
      "signature": "0xac62f566"
    },
    {
      "constant": true,
      "inputs": [
        {
          "name": "id",
          "type": "uint256"
        }
      ],
      "name": "state",
      "outputs": [
        {
          "name": "",
          "type": "uint8"
        },
        {
          "name": "",
          "type": "string"
        },
        {
          "name": "",
          "type": "uint256"
        },
        {
          "name": "",
          "type": "string"
        },
        {
          "name": "",
          "type": "string"
        },
        {
          "name": "",
          "type": "bool"
        }
      ],
      "payable": false,
      "stateMutability": "view",
      "type": "function",
      "signature": "0x3e4f49e6"
    },
    {
      "constant": true,
      "inputs": [],
      "name": "admin",
      "outputs": [
        {
          "name": "",
          "type": "address"
        }
      ],
      "payable": false,
      "stateMutability": "view",
      "type": "function",
      "signature": "0xf851a440"
    },
    {
      "inputs": [
        {
          "name": "eN",
          "type": "string"
        },
        {
          "name": "s",
          "type": "address"
        },
        {
          "name": "t",
          "type": "uint256"
        }
      ],
      "payable": true,
      "stateMutability": "payable",
      "type": "constructor",
      "signature": "constructor"
    },
    {
      "anonymous": false,
      "inputs": [],
      "name": "Cancelled",
      "type": "event",
      "signature": "0x63b958841f79ab97cb5456da181454b9932c0e15a3b17f1cbd27e2a8bc610437"
    },
    {
      "anonymous": false,
      "inputs": [],
      "name": "DonationAdded",
      "type": "event",
      "signature": "0x6e17783002de66a05ed48ac709ade4b8c5806ec2a7e1014c43c599cd61868736"
    },
    {
      "anonymous": false,
      "inputs": [],
      "name": "ThresholdReached",
      "type": "event",
      "signature": "0xef4720876eec60578b011154674441f878d08e29612ff717939a628de0baf773"
    },
    {
      "constant": false,
      "inputs": [],
      "name": "cancel",
      "outputs": [],
      "payable": false,
      "stateMutability": "nonpayable",
      "type": "function",
      "signature": "0xea8a1af0"
    },
    {
      "constant": false,
      "inputs": [],
      "name": "addDonation",
      "outputs": [],
      "payable": true,
      "stateMutability": "payable",
      "type": "function",
      "signature": "0xced6d267"
    },
    {
      "constant": false,
      "inputs": [],
      "name": "getTotal",
      "outputs": [
        {
          "name": "",
          "type": "uint256"
        }
      ],
      "payable": false,
      "stateMutability": "nonpayable",
      "type": "function"
    }
  ],
  "bytecode": "0x608060405260405161094c38038061094c8339810180604052606081101561002657600080fd5b81019080805164010000000081111561003e57600080fd5b8281019050602081018481111561005457600080fd5b815185600182028301116401000000008211171561007157600080fd5b5050929190602001805190602001909291908051906020019092919050505081600460006101000a81548173ffffffffffffffffffffffffffffffffffffffff021916908373ffffffffffffffffffffffffffffffffffffffff16021790555082600090805190602001906100e7929190610153565b5033600560006101000a81548173ffffffffffffffffffffffffffffffffffffffff021916908373ffffffffffffffffffffffffffffffffffffffff1602179055506000600560146101000a81548160ff021916908315150217905550806002819055505050506101f8565b828054600181600116156101000203166002900490600052602060002090601f016020900481019282601f1061019457805160ff19168380011785556101c2565b828001600101855582156101c2579182015b828111156101c15782518255916020019190600101906101a6565b5b5090506101cf91906101d3565b5090565b6101f591905b808211156101f15760008160009055506001016101d9565b5090565b90565b610745806102076000396000f3fe608060405260043610610099576000357c0100000000000000000000000000000000000000000000000000000000900463ffffffff1680632ddbd13a1461009e57806336da4468146100c957806342cde4e814610120578063775a25e31461014b578063ac62f56614610176578063c19d93fb146101f8578063ced6d26714610231578063ea8a1af01461023b578063f851a44014610252575b600080fd5b3480156100aa57600080fd5b506100b36102a9565b6040518082815260200191505060405180910390f35b3480156100d557600080fd5b506100de6102af565b604051808273ffffffffffffffffffffffffffffffffffffffff1673ffffffffffffffffffffffffffffffffffffffff16815260200191505060405180910390f35b34801561012c57600080fd5b506101356102d5565b6040518082815260200191505060405180910390f35b34801561015757600080fd5b506101606102db565b6040518082815260200191505060405180910390f35b34801561018257600080fd5b506101af6004803603602081101561019957600080fd5b81019080803590602001909291905050506102e5565b604051808373ffffffffffffffffffffffffffffffffffffffff1673ffffffffffffffffffffffffffffffffffffffff1681526020018281526020019250505060405180910390f35b34801561020457600080fd5b5061020d610338565b6040518082600281111561021d57fe5b60ff16815260200191505060405180910390f35b61023961034b565b005b34801561024757600080fd5b5061025061046f565b005b34801561025e57600080fd5b506102676106f3565b604051808273ffffffffffffffffffffffffffffffffffffffff1673ffffffffffffffffffffffffffffffffffffffff16815260200191505060405180910390f35b60015481565b600460009054906101000a900473ffffffffffffffffffffffffffffffffffffffff1681565b60025481565b6000600154905090565b6003818154811015156102f457fe5b90600052602060002090600202016000915090508060000160009054906101000a900473ffffffffffffffffffffffffffffffffffffffff16908060010154905082565b600560159054906101000a900460ff1681565b7f6e17783002de66a05ed48ac709ade4b8c5806ec2a7e1014c43c599cd6186873660405160405180910390a1600360408051908101604052803373ffffffffffffffffffffffffffffffffffffffff168152602001348152509080600181540180825580915050906001820390600052602060002090600202016000909192909190915060008201518160000160006101000a81548173ffffffffffffffffffffffffffffffffffffffff021916908373ffffffffffffffffffffffffffffffffffffffff160217905550602082015181600101555050503460016000828254019250508190555060025460015410151561046d577fef4720876eec60578b011154674441f878d08e29612ff717939a628de0baf77360405160405180910390a15b565b600560009054906101000a900473ffffffffffffffffffffffffffffffffffffffff1673ffffffffffffffffffffffffffffffffffffffff163373ffffffffffffffffffffffffffffffffffffffff16141515610534576040517f08c379a000000000000000000000000000000000000000000000000000000000815260040180806020018281038252601d8152602001807f4f6e6c79207468652061646d696e2063616e2063616c6c20746869732e00000081525060200191505060405180910390fd5b600080600281111561054257fe5b600560159054906101000a900460ff16600281111561055d57fe5b1415156105d2576040517f08c379a000000000000000000000000000000000000000000000000000000000815260040180806020018281038252600e8152602001807f496e76616c69642073746174652e00000000000000000000000000000000000081525060200191505060405180910390fd5b7f63b958841f79ab97cb5456da181454b9932c0e15a3b17f1cbd27e2a8bc61043760405160405180910390a16002600560156101000a81548160ff0219169083600281111561061d57fe5b02179055506000600380549050905060008090505b818110156106ee5760038181548110151561064957fe5b906000526020600020906002020160000160009054906101000a900473ffffffffffffffffffffffffffffffffffffffff1673ffffffffffffffffffffffffffffffffffffffff166108fc6003838154811015156106a357fe5b9060005260206000209060020201600101549081150290604051600060405180830381858888f193505050501580156106e0573d6000803e3d6000fd5b508080600101915050610632565b505050565b600560009054906101000a900473ffffffffffffffffffffffffffffffffffffffff168156fea165627a7a723058206c9cb2ca478044f652046e0ccb54f5e417fb9159be08d7aff0ec602368294afb0029",
  "source": "pragma solidity ^0.5.0;\r\n\r\n// code based on https://github.com/jklepatch/eattheblocks/blob/master/special-episode-1/step3/contracts/ToDo.sol \r\n\r\ncontract buyGoods {\r\n\tstring eventName;\r\n\tuint public total;\r\n\tstruct Donator {\r\n\t\taddress payable dAddr; // donator's address\r\n\t\tuint value; // how much the donator has donated\r\n\t}\r\n\tuint public threshold;\r\n\tDonator[] public donators; // the buyers\r\n\taddress payable public supplier; // the seller\r\n\taddress public admin; // the administration - we can cancel the funds\r\n\tbool paid;\r\n\tenum State { Created, Locked, Inactive }\r\n\tState public state;\r\n\r\n\t// Create the contract \r\n\tconstructor(string memory eN, address payable s, uint t) \r\n\t\tpayable\r\n\t\tpublic  \r\n\t{\r\n\t\tsupplier = s;\r\n\t\teventName = eN;\r\n\t\tadmin = msg.sender;\r\n\t\tpaid = false;\r\n\t\tthreshold = t;\r\n\t}\r\n\r\n\tmodifier condition(bool _condition) {\r\n\t\trequire(_condition);\r\n\t\t_;\r\n\t}\r\n\r\n\tmodifier onlyAdmin() {\r\n\t\trequire(\r\n\t\t\tmsg.sender == admin,\r\n\t\t\t'Only the admin can call this.'\r\n\t\t);\r\n\t\t_;\r\n\t}\r\n\r\n\tmodifier inState(State _state) {\r\n        require(\r\n            state == _state,\r\n            \"Invalid state.\"\r\n        );\r\n        _;\r\n    }\r\n\r\n\tevent Cancelled();\r\n\tevent DonationAdded();\r\n\tevent ThresholdReached();\r\n\t//event PurchaseConfirmed();\r\n\r\n\t// Cancel the donations if threshold not met, can only do as admin\r\n\tfunction cancel()\r\n\t\tpublic\r\n\t\tonlyAdmin()\r\n\t\tinState(State.Created) \r\n\t{\r\n\t\temit Cancelled();\r\n\t\tstate = State.Inactive;\r\n\t\tuint len = donators.length;\r\n\t\t// refund all donators how much they donated if the threshold is not met\r\n\t\tfor (uint i = 0; i < len; i++) {\r\n\t\t\tdonators[i].dAddr.transfer(donators[i].value);\r\n\t\t}\r\n\t}\r\n\r\n\tfunction addDonation()\r\n\t\tpublic\r\n\t\tpayable\r\n\t{\r\n\t\temit DonationAdded();\r\n\t\tdonators.push(Donator( { \r\n\t\t\tdAddr: msg.sender,\r\n\t\t\tvalue: msg.value\r\n\t\t}));\r\n\t\ttotal += msg.value;\r\n\t\tif (total >= threshold) {\r\n\t\t\temit ThresholdReached();\r\n\t\t}\r\n\t}\r\n\r\n\tfunction getTotal() public returns (uint){\r\n\t\treturn total;\r\n\t}\r\n\r\n}",
  "sourcePath": "C:/Users/samue/Documents/GitHub/Accenture-Hackathon-2019/blockchain/contracts/BuyGoods.sol",
  "compiler": {
    "name": "solc",
    "version": "0.5.0+commit.1d4f565a.Emscripten.clang"
  },
  "schemaVersion": "3.0.8",
  "updatedAt": "2019-04-27T23:47:16.722Z",
  "devdoc": {
    "methods": {}
  },
  "userdoc": {
    "methods": {}
  }
}